:020000020000FC
:1000000014C060C03BC018951895189518951895A0
:100010001895189518951895189518951895189578
:100020001895189518951895189502E00EBF0FE5CC
:100030000DBF00E001BB0FEF02BB0ABB00E00BBB32
:1000400000E003BF02BF0AE005BF00EC0BBF7894DD
:1000500040E030E05FEF60E070E0603031F0613050
:1000600031F0623031F0633030F499D0F6CF55D0B2
:10007000F4CF5FD0F2CF7DD0F0CFEFCF0F932F939F
:10008000FF93EF9305E03DD00A95E9F7F0E0E0E655
:1000900020812395283010F02850FCCF2083022F98
:1000A000200F200FF2E0E8E9E20FF71F35914591AC
:1000B000549104E126D00A95E9F7EF91FF912F9131
:1000C0000F9118950F9305E01CD00A95E9F76395F9
:1000D000643010F06450FCCF00B302FFFDCF04E1A8
:1000E00010D00A95E9F70F9118950F9300E002BF21
:1000F00005E003BF02B70030E8F300E003BF0F9153
:1001000008950F9300E002BF05E003BF02B70C3D66
:10011000E8F300E003BF0F9108950F93F0E0E1E6EC
:1001200008E03193419351930A95D9F764D00F9128
:1001300008950F932F9320E0F0E0E1E604E031937F
:10014000419351932193219321930A95C1F753D061
:10015000CCDFF0E0E1E604E0219321932193319399
:10016000419351930A95C1F746D0BFDF2F910F916C
:1001700008950F932F9320E0F0E0E1E608E121934A
:100180000A95E9F7F0E0E1E608E0319341935193F5
:1001900032D0ABDF0A95C9F72F910F9108950F93D5
:1001A0002F934F933F935F93F2E0E0E8D0E0C1E6F6
:1001B00008E1259129930A95E1F71DD096DF07E024
:1001C000D0E0C1E6659639914991588122970F9305
:1001D00005E12A912B830A95E1F70F913993499311
:1001E000599309D082DF0A9559F75F914F913F915A
:1001F0002F910F910895F8940F93FF93EF93F0E0F0
:10020000E1E618E100E00BBB02BF05E003BF02B767
:100210000A3FE8F300E003BF68DF67DF66DF65DF02
:1002200064DF63DF08E02191269510F01DD001C046
:1002300009D00A95C9F71A95A9F7EF91FF910F9187
:10024000789408950F9301E00BBB000000000000BC
:10025000000000000000000000000000000000009E
:1002600000E00BBB0F9108950F9301E00BBB000062
:10027000000000000000000000E00BBB0F9108959B
:10028000007F00527F004F7F007F7D007F00007F56
:10029000007F00007F007F7F7F7F7F497F007E5B44
:1002A0006A7F7B0000047F205D7F7F0000007F006D
:00000001FF
